:100000000C9474010C949C010C949C010C949C0124
:100010000C949C010C949C010C949C010C949C01EC
:100020000C949C010C949C010C941F0B0C94EB09F8
:100030000C949C010C949C010C949C010C949C01CC
:100040000C949C010C949C010C949C010C949C01BC
:100050000C949C010C949C010C949C010C946203E4
:100060000C949C010C949C010C949C010C949C019C
:100070000C949C010C949C010C949C010C949C018C
:100080000C949C010C949C010C949C010C949C017C
:100090000C949C010C949C010C949C010C949C016C
:1000A0000C949C010C949C010C949C01A204A5044A
:1000B000940498049E04C604C604C604A904AD04AE
:1000C000B104B704BB04C604C1040706050401005B
:1000D000080A0B0C0D090000000200090F000003C4
:1000E0000401000C000000000000000000000000FF
:1000F00000000000040802011040804010204080F1
:10010000408008020401804020100201108010206D
:100110004040040404040403040502020202040330
:100120000202020206060606060604040202020491
:10013000000000002300260029002C002F000000F2
:100140000000250028002B002E00310000000000D8
:10015000240027002A002D003000080B00020202B4
:100160000100090400000102020000052400100142
:1001700005240101010424020605240600010705E7
:10018000810310004009040100020A000000070575
:10019000020240000007058302400000000000004A
:1001A000000000002A2B28000000000000000000D2
:1001B0000000000000000000000000002C9EB4A021
:1001C000A1A2A434A6A7A5AE362D3738271E1F201E
:1001D000212223242526B333B62EB7B89F848586E3
:1001E0008788898A8B8C8D8E8F9091929394959627
:1001F0009798999A9B9C9D2F3130A3AD35040506A5
:100200000708090A0B0C0D0E0F1011121314151606
:100210001718191A1B1C1DAFB1B0B5000904020054
:10022000010300000009210101000122650007050A
:10023000840340000105010902A1010901A1008513
:10024000010509190129031500250195037501818F
:100250000295017505810305010930093109381539
:1002600081257F750895038106C0C005010906A197
:10027000018502050719E029E7150025017501959B
:1002800008810295017508810395067508150025FA
:10029000650507190029658100C000C18081C11270
:1002A00001000202000040412336800001010200EB
:1002B00001120100020000004041233680000101CC
:1002C00002000141726475696E6F204C4C4300411D
:1002D000726475696E6F204C656F6E6172646F0039
:1002E000040309042206A60711241FBECFEFDAE09B
:1002F000DEBFCDBF11E0A0E0B1E0E8E3F7E102C06E
:1003000005900D92AA32B107D9F721E0AAE2B1E037
:1003100001C01D92A93BB207E1F712E0C8EED2E09E
:1003200004C02297FE010E94960BC43ED107C9F774
:100330000E94B4070C949A0B0C94000060E08FE0CC
:100340000E94C70461E08FE00E94000560E084E045
:100350000E94C70461E084E00E94000560E083E041
:100360000E94C70461E083E00E94000540E855E276
:1003700060E070E083E591E00E941C0610923B0172
:1003800010923A01109239011092380110923701FF
:1003900010923401109233010E94AC0360932E013D
:1003A00070932F01809330019093310160932A0163
:1003B00070932B0180932C0190932D0108952FEFC2
:1003C00031E0281B390BC90181529E4F80349105C1
:1003D00018F08BEF9FEF02C08CEF9FEFA901415601
:1003E0005E4F4034510510F48DEF9FEFA901415A43
:1003F0005E4F4034510510F48EEF9FEFA901415E2E
:100400005E4F4034510510F48EEF9FEFA901415229
:100410005F4F4034510510F48FEF9FEFA901415613
:100420005F4F4034510508F450C0213A4FEF340774
:10043000A4F0273A6FEF36075CF441E050E00196F4
:1004400011F440E050E088279927841B950B05C0E4
:100450002B353105ECF580E090E0A90141565109BA
:100460004034510510F481E090E0A901415A51094E
:100470004034510510F481E090E0A901415E51093A
:100480004034510510F482E090E0A90141525140FE
:100490004034510510F482E090E0A90141565140EA
:1004A0004034510510F483E090E0A901415A5140D5
:1004B0004034510520F0213E314024F4089584E079
:1004C00090E0089585E090E008958FEF9FEFC5CF0D
:1004D0002136310514F681E090E0BFCF20913A013A
:1004E00040913C0160913E018FEA91E00E94AD068F
:1004F0008091390181110DC080913801811109C0AD
:1005000080913701811105C067E08FEA91E00E9478
:10051000D80680913701882329F064E08FEA91E0C2
:100520000E94D30680913801882329F062E08FEA87
:1005300091E00E94D30680913901882329F061E07F
:100540008FEA91E00E94D30664E170E080E090E0E1
:100550000C94DB03CF93DF93809148019091490184
:10056000909343018093420180914601909147010D
:10057000909341018093400181E00E94590490933F
:1005800049018093480180E00E94590490934701FB
:100590008093460182E00E94590490934501809324
:1005A000440180914601909147010E94DF01EC01D6
:1005B00090933F0180933E018091480190914901C1
:1005C0000E94DF0190933D0180933C01CD2B29F4E3
:1005D000892B19F41092320103C081E0809332011B
:1005E00080913901809336018091380180933501E3
:1005F00084E00E943605892B21F481E08093390143
:1006000002C01092390183E00E943605892B21F443
:1006100081E08093380102C0109238019091390135
:1006200080913601981306C0909138018091350170
:10063000981719F081E08093320110923701809170
:100640004401909145018132934074F081E090E043
:1006500090933B0180933A018093320164E670E00D
:1006600080E090E00E94DB0380914401909145017D
:10067000803E91057CF48FEF9FEF90933B01809338
:100680003A0181E08093320164E670E080E090E01E
:100690000E94DB038091440190914501805E9109A5
:1006A0008134924020F410923B0110923A018091E3
:1006B0003201882321F0DF91CF910C946E02DF91FB
:1006C000CF9108951F920F920FB60F9211242F937E
:1006D0003F938F939F93AF93BF9380914B019091E2
:1006E0004C01A0914D01B0914E0130914A0123E09F
:1006F000230F2D3720F40196A11DB11D05C026E85A
:10070000230F0296A11DB11D20934A0180934B0136
:1007100090934C01A0934D01B0934E0180914F01F5
:1007200090915001A0915101B09152010196A11DEB
:10073000B11D80934F0190935001A0935101B0934C
:100740005201BF91AF919F918F913F912F910F9047
:100750000FBE0F901F9018952FB7F89460914B0122
:1007600070914C0180914D0190914E012FBF0895E1
:100770003FB7F89480914F0190915001A0915101A1
:10078000B091520126B5A89B05C02F3F19F00196E4
:10079000A11DB11D3FBF6627782F892F9A2F620FA9
:1007A000711D811D911D42E0660F771F881F991FE3
:1007B0004A95D1F70895CF92DF92EF92FF92CF93AF
:1007C000DF936B017C010E94B803EB01C114D104DB
:1007D000E104F10489F00E94930B0E94B8036C1BA2
:1007E0007D0B683E734090F381E0C81AD108E108A0
:1007F000F108C851DC4FEACFDF91CF91FF90EF9025
:10080000DF90CF900895789484B5826084BD84B5DC
:10081000816084BD85B5826085BD85B5816085BDFB
:10082000EEE6F0E0808181608083E1E8F0E0108214
:10083000808182608083808181608083E0E8F0E055
:10084000808181608083E1E9F0E080818260808343
:10085000808181608083E0E9F0E080818160808335
:10086000E1ECF0E08081846080838081826080831D
:10087000808181608083E3ECF0E08081816080830F
:10088000E0ECF0E0808182608083E2ECF0E0808147
:1008900081608083EAE7F0E08081846080838081EA
:1008A0008260808380818160808380818068808392
:1008B0000895823108F08251E82FF0E0E653FF4FAF
:1008C000E49180917B00E3FB222720F930E095E062
:1008D000220F331F9A95E1F78F7D822B80937B0047
:1008E000E7708091000120E4829FC0011124E82B71
:1008F000E0937C0080917A00806480937A008091FC
:100900007A0086FDFCCF809178002091790090E0FC
:10091000922B089590E0FC013197EF30F105B0F58E
:10092000EA5AFF4F0C94940B809180008F7703C09C
:10093000809180008F7D8093800008958091800059
:10094000877FF9CF84B58F7702C084B58F7D84BD52
:100950000895809190008F7707C0809190008F7DDF
:1009600003C080919000877F8093900008958091CC
:10097000C0008F7703C08091C0008F7D8093C0003E
:1009800008958091C200877F8093C2000895CF931D
:10099000DF9390E0FC01EC50FF4F2491FC01EE5EF0
:1009A000FE4F8491882349F190E0880F991FFC0144
:1009B000E45BFE4FA591B491825C9E4FFC01C59112
:1009C000D4919FB7611108C0F8948C91209582232F
:1009D0008C93888182230AC0623051F4F8948C9100
:1009E000322F309583238C938881822B888304C097
:1009F000F8948C91822B8C939FBFDF91CF910895B7
:100A00000F931F93CF93DF931F92CDB7DEB7282F9D
:100A100030E0F901EA52FF4F8491F901EC50FF4FA9
:100A20001491F901EE5EFE4F04910023C9F0882372
:100A300021F069830E948A046981E02FF0E0EE0FC3
:100A4000FF1FE25CFE4FA591B4919FB7F8948C9183
:100A5000611103C01095812301C0812B8C939FBF2E
:100A60000F90DF91CF911F910F910895CF93DF9356
:100A7000282F30E0F901EA52FF4F8491F901EC5040
:100A8000FF4FD491F901EE5EFE4FC491CC2391F05B
:100A900081110E948A04EC2FF0E0EE0FFF1FE05D51
:100AA000FE4FA591B4912C912D2381E090E021F48B
:100AB00080E002C080E090E0DF91CF910895CF9375
:100AC000DF931F92CDB7DEB76983DC01ED91FC9116
:100AD0000280F381E02D41E050E0BE016F5F7F4F67
:100AE00009950F90DF91CF910895CF93DF93EC019B
:100AF0008C859D8597FF05C082E00E94C0089D8778
:100B00008C878C859D85DF91CF91089583E00C942F
:100B1000150BFC018485958597FD06C082E00E9437
:100B2000680890E00196089582E00E94680890E0CD
:100B30000895FC018485958597FD05C02FEF3FEF53
:100B400035872487089582E00C94C008CF93DF9303
:100B5000EC0180910801882331F083E00E94F108C4
:100B60001816190634F081E090E09B838A8380E0B8
:100B700090E0DF91CF910895FC0120812E5F2083CA
:100B800042E450E06AE571E080E80C948C09FC01D5
:100B900081819081913A59F4813209F03CC047E05B
:100BA00050E061E071E080E00E948C0943C0913226
:100BB00091F5803239F467E070E081E091E00E94C5
:100BC000BD0906C0823209F035C0828180930801D8
:100BD0008091010190910201A0910301B091040163
:100BE000803B9440A105B105C1F48091080180FDCE
:100BF00014C087E797E790930108809300082BE0E3
:100C000088E190E00FB6F894A895809360000FBE3D
:100C1000209360000FC080E0089588E10FB6F8943B
:100C200080936000109260000FBEA895109201089A
:100C30001092000881E008952FEF3FEFFC01358707
:100C400024870895109256011092550188EE93E082
:100C5000A0E0B0E08093570190935801A093590110
:100C6000B0935A018FE091E0909354018093530127
:100C70008FEF9FEF9093600180935F010895FF9243
:100C80000F931F93CF93DF93EC01F62EE881F98148
:100C90000480F581E02D09958C01E881F9810680B9
:100CA000F781E02D6F2DCE010995C8019927DF91BD
:100CB000CF911F910F91FF900895FC0120812F5F2C
:100CC000208349E150E06CE172E080E80C948C09EB
:100CD00045E650E065E372E080E80C948C09EF9201
:100CE000FF920F931F93CF93DF931F92CDB7DEB781
:100CF00089838B017A0141E050E0BE016F5F7F4F35
:100D000084E00E94F108A701B80184E40E94F10880
:100D10000F90DF91CF911F910F91FF90EF90089569
:100D2000FC0191818081813A31F481E0913091F030
:100D3000933089F411C0813271F49B3021F48281A7
:100D400080930A0105C09A3031F4828180930901B1
:100D500081E00895089580E00895CF93DF9300D057
:100D600000D0CDB7DEB7FC01808189836A834B83D5
:100D70002C8344E050E0BE016F5F7F4F81E00E9412
:100D80006F060F900F900F900F90DF91CF91089505
:100D9000FC012081621731F0608320E040E060E0D8
:100DA0000C94AD060895FC012081622B0C94C806BA
:100DB0006095FC01208162230C94C80648E050E055
:100DC00082E00C946F06CF93DF93DC01683818F053
:100DD000E8E7E60F25C0E62FF0E067FF11C0E05816
:100DE000F10981E090E001C0880FEA95EAF71496D6
:100DF0009C911497982B14969C931497E0E010C044
:100E0000E456FE4FE491EE2309F440C0E7FF08C02A
:100E100014968C911497826014968C931497EF77A4
:100E200016968C9116978E1741F117968C911797FD
:100E30008E1719F118968C9118978E17F1F0199654
:100E40008C9119978E17C9F01A968C911A978E1754
:100E5000A1F01B968C911B978E1779F080E090E0A3
:100E6000ED01C80FD91F2E81211102C0EE8305C0EC
:100E7000019686309105A1F709C0BD016C5F7F4FD7
:100E8000CD010E94DE0681E090E008C081E090E0A4
:100E900013969C938E93129780E090E0DF91CF9110
:100EA0000895683818F0E8E7E60F25C0E62FF0E06F
:100EB00067FF12C0E058F10921E030E001C0220FC5
:100EC000EA95EAF72095DC0114963C9114973223B9
:100ED00014963C93E0E00FC0E456FE4FE491EE23FD
:100EE00029F1E7FF08C0DC0114962C9114972D7F9F
:100EF00014962C93EF7720E030E0EE2351F0DC01E4
:100F0000A20FB31F16964C9116974E1302C0169659
:100F10001C922F5F3F4F2630310579F7BC016C5F83
:100F20007F4F0E94DE0681E090E0089580E090E02F
:100F30000895FC0116821782108611861286138688
:100F40001482BC016C5F7F4F0C94DE061092AF01DF
:100F50001092A6011092A5018FE191E09093A40157
:100F60008093A301089508950E9403040E94B3078B
:100F700080EB91E00E94750B0E949E01C0E0D0E0E2
:100F80000E94AA022097E1F30E940000F9CFCF92BD
:100F9000DF92EF92FF920F931F93CF93DF936C0139
:100FA0007A01EB01E60EF71E00E010E0CE15DF053A
:100FB00061F06991D601ED91FC910190F081E02DF5
:100FC000C6010995080F191FF1CFC801DF91CF9114
:100FD0001F910F91FF90EF90DF90CF900895409177
:100FE000B4015091B5012091B2013091B301421783
:100FF0005307B4F49091E8009570E1F39091E80004
:1010000092FD19C08093F1008091B4019091B501D7
:1010100001968F739927892B19F48EEF8093E8003E
:101020008091B4019091B50101969093B5018093A0
:10103000B40181E0089580E00895CF92DF92FF929D
:101040000F931F93CF93DF931F92CDB7DEB7082F77
:10105000162F862F880F8E5F99830E94EF0783E0FB
:101060000E94EF07F02EC02E9981D92E8C2D8F195A
:10107000811778F4F60184910E94EF07082F80E031
:101080000E94EF078023FFEFCF1ADF0A8111EECF16
:1010900001C081E00F90DF91CF911F910F91FF90E0
:1010A000DF90CF900895615030F02091F100FC0165
:1010B00020830196F8CF289884E68093B70108959D
:1010C0002FB7FC012083F89467706093E9000895BE
:1010D000CF93DF931F92CDB7DEB7682FCE01019675
:1010E0000E9460088091F20099819FBF0F90DF916C
:1010F000CF910895FF920F931F93CF93DF9300D06A
:10110000CDB7DEB7F62E8A019091B601992311F082
:1011100057FF03C08FEF9FEF2BC0682FCE010196C2
:101120007A830E9460088091F20090E0A8017A81A1
:10113000801791070CF4AC01EF2DF72FF40E84E625
:10114000FE1639F028988093B7019091F1009193A1
:10115000F7CF4115510521F08091F200882321F04D
:1011600089818FBFCA0104C08BE68093E800F8CF65
:101170000F900F90DF91CF911F910F91FF900895E5
:10118000CF93DF931F92CDB7DEB741E050E0BE01B1
:101190006F5F7F4F0E947A08019719F4898190E070
:1011A00002C08FEF9FEF0F90DF91CF910895CF9303
:1011B000DF931F92CDB7DEB7682FCE0101960E9454
:1011C00060089091E800892F807295FF04C090918B
:1011D000F20080E4891B99819FBF0F90DF91CF912E
:1011E00008956F927F928F929F92AF92BF92CF920B
:1011F000DF92EF92FF920F931F93CF93DF931F9293
:10120000CDB7DEB7782E7B01C42EB52E8091B60106
:10121000882369F0042F152F8AEFD82E872D80722E
:10122000982E9AE3A92E872D8074882E11C08FEFF7
:101230009FEF57C0872D0E94D708682E81110CC0E0
:10124000DA94A9F361E070E080E090E00E94DB03B3
:101250000115110579F73BC0282F30E0021713075D
:101260000CF4602E672DCE0101960E9460088091DB
:10127000E80085FF29C0262D30E0021B130B9920C2
:1012800039F06A948FEF6816B1F01092F100F9CF3F
:10129000F701862D77FE07C0815058F09491909306
:1012A000F1003196F9CF815020F091919093F100A7
:1012B000FACFE20EF31E8091E80085FF0FC0011502
:1012C000110511F481100AC089818FBFC1CF5D98CB
:1012D00084E68093B8018C2D9B2D03C0A092E8007A
:1012E000F3CF0F90DF91CF911F910F91FF90EF906F
:1012F000DF90CF90BF90AF909F908F907F906F9036
:1013000008951092E9001092B5011092B4019093E3
:10131000B3018093B2010895CF92DF92FF920F93B1
:101320001F93CF93DF9300D0CDB7DEB7F82E8A019D
:101330006B0101151105B1F0F601F7FE02C08491B1
:1013400001C0808149835A830E94EF07015011092F
:10135000FFEFCF1ADF0A49815A818111EACF8FEF5F
:101360009FEF01C0CA010F900F90DF91CF911F91A5
:101370000F91FF90DF90CF9008951F93CF93DF934D
:101380001F92CDB7DEB7162F2091E80022FFFCCFC9
:10139000612F79830E9453088BEF8093E800812F9F
:1013A0007981972F0F90DF91CF911F910895CF935F
:1013B000DF931F92CDB7DEB71982CE0101960E944E
:1013C000BC05CE0101960E945D06898190E00F90D8
:1013D000DF91CF9108951F920F920FB60F921124B3
:1013E000EF92FF920F931F932F933F934F935F932F
:1013F0006F937F938F939F93AF93BF93EF93FF93DD
:10140000CF93DF93CDB7DEB76297DEBFCDBF10922B
:10141000E9008091E80083FFEBC068E0CE010A9606
:101420000E94530882EF8093E8009A8597FF05C0D9
:101430008091E80080FFFCCF03C08EEF8093E8002E
:10144000892F807609F0B9C08B85811105C0109273
:10145000F1001092F100C5C0282F2D7F213009F432
:10146000C0C0853049F48091E80080FFFCCF8C85B6
:1014700080688093E300B5C0863009F076C02D8582
:10148000E888F988223071F580E090E02A8B0E948C
:1014900081090E94D70999E08E010F5F1F4FF80163
:1014A000392F11923A95E9F799832A892A8391E095
:1014B0009E8390E898879AEF99872091B4013091A4
:1014C000B501275F3F4F3C832B838D83C7010E946B
:1014D000810949E050E0B80180E00E948C090E9437
:1014E000D7097FC0C7012A8B0E9481092A8922322D
:1014F00041F482E290E00E946806892B09F071C0F5
:1015000074C0213069F488899989089711F420936F
:10151000B1018091B101811118C061EB72E01AC074
:10152000233009F062C08C85882391F0823021F449
:1015300060E18FEC92E006C0813009F056C06BE0AC
:1015400083EC92E00E941D084AC06FE972E002C07D
:1015500060EE72E06115710509F447C0FB0144912A
:1015600050E080E80E948C093CC0873009F43DC0FF
:10157000883021F481E08093F10033C0893089F50F
:10158000937099F5EBE9F2E081E021E096E3809336
:10159000E9002093EB0034913093EC009093ED0040
:1015A0008F5F3196853099F78EE78093EA0010922D
:1015B000EA008C858093B60114C0888999890E94BD
:1015C00081098E85811105C0CE010A960E94C7054A
:1015D00006C0823051F4CE010A960E9490068823FC
:1015E00021F08EEF8093E80003C081E28093EB004E
:1015F00062960FB6F894DEBF0FBECDBFDF91CF91DC
:10160000FF91EF91BF91AF919F918F917F916F91DA
:101610005F914F913F912F911F910F91FF90EF900C
:101620000F900FBE0F901F9018958093E900809146
:10163000F200882319F08AE38093E80008951F924E
:101640000F920FB60F9211242F933F934F935F93F6
:101650006F937F938F939F93AF93BF93EF93FF937A
:101660008091E1001092E10083FF0FC01092E90029
:1016700091E09093EB001092EC0092E39093ED00D8
:101680001092B60198E09093F00082FF1DC083E0B5
:101690000E94150B8091B801882339F08091B80120
:1016A00081508093B801882369F08091B701882325
:1016B00059F08091B70181508093B701811104C026
:1016C000289A02C05D9AF1CFFF91EF91BF91AF913F
:1016D0009F918F917F916F915F914F913F912F914A
:1016E0000F900FBE0F901F9018951092B60181E0D9
:1016F0008093D70080EA8093D80082E189BD09B445
:1017000000FEFDCF61E070E080E090E00E94DB032E
:1017100080E98093D8008CE08093E2001092E00092
:10172000559A209A08950895EE0FFF1F0590F491A1
:08173000E02D0994F894FFCFAD
:101738000100E10000000000000101000000005F5E
:1017480005A6058905990575058605000000003F71
:0A17580006C707E3065107990700D2
:00000001FF
